:020000040040BA
:10000000D87A00204D5D4000590140005B0140005E
:100010005D0140005F014000610140000000000000
:10002000000000000000000000000000630140002C
:1000300065014000000000006701400069014000C8
:10004000A057002080011C00D45B00200C001A0087
:10005000284A002014001B00C05600202800190068
:10006000E849002040001800F82B0020800217000B
:10007000485B002002001300515B002001001400C7
:10008000C85B002008001500035B0020010016007B
:10009000D85A002008000000FC5A0020010001008E
:1000A000385B002008000200785A0020040003009A
:1000B000BE5B002001000400B55B002001000500CC
:1000C000105B002001000600115B0020010007000A
:1000D000125B002001000800205B002011000900D5
:1000E000FE5A002002000A00045B002001000B0001
:1000F000C05B002002000C00B85B002001000D0076
:10010000E05B002001000E00415B002001000F00B9
:10011000585A002008001000605A00200200110008
:10012000435B002001001200869D41001600230061
:10013000B29D410017002200E09D41001D002100FA
:100140001A9E4100020020001E9E410004001F0074
:10015000269E410013001E0007E007E007E007E0CD
:1001600007E007E007E007E007E007E006E005E05A
:1001700004E003E002E001E000E0FFE7FFB44046F6
:10018000494652465B4664461FB469460E4A0D23F3
:1001900001250C68043114600432013B002BF8D1B6
:1001A000103104230DB1013DF3E710391160EFF375
:1001B000058006F093FD1FBC8046894692469B460B
:1001C000A446FFBC70470000D45C0020032A70B432
:1001D00026D941EA00050346AD070C4613D0057841
:1001E000013A0C780023A54204D01DE06578CC5C70
:1001F000A54219D19A4200EB030403F10103F5D1A2
:10020000002070BC70472146184604340433066849
:100210000D68AE4204D1043A032AF4D821461846A8
:10022000002ADCD11046ECE7281BEAE70F2AF0B4DD
:1002300098BF034631D941EA00039B0736D10C46EB
:10024000034615462668103D1E6066685E60A66817
:100250009E60E6681034DE6010330F2DF2D8A2F1F4
:10026000100402F00F0224F00F041034032A00EBF4
:100270000403214411D90E461D46144656F8047B4A
:10028000043C032C45F8047BF8D8141F02F0030249
:1002900024F00304043409191B192AB111F8014B85
:1002A000013A03F8014BF9D1F0BC70470346F5E77A
:1002B0008842F0B412D98D18A8420FD262B1134609
:1002C000821859426D185218EC18D118013B14F8D5
:1002D000014C01F8014CF7D1F0BC70470F2A98BFD0
:1002E000034631D941EA00039B073CD10C46034643
:1002F00015462668103D1E6066685E60A6689E60B2
:10030000E6681034DE6010330F2DF2D8A2F110042D
:1003100002F00F0224F00F041034032A00EB040350
:10032000214411D90E461D46144656F8047B043C60
:10033000032C45F8047BF8D8141F02F0030224F0C4
:100340000304043409191B19002AC5D011F8014B04
:10035000013A03F8014BBFD011F8014B013A03F801
:10036000014BF3D1B8E711F8014B0346013A03F80A
:10037000014BF1D1B0E700BF10F0030F034670B49A
:1003800041D0002A3DD0CEB201E0002A39D003F896
:10039000016B541E13F0030F22461D46F5D1032CAA
:1003A00029D9CAB20F2C84BF2B46264642EA022224
:1003B00042EA024211D9103E1A605A609A60DA602D
:1003C00010330F2EF7D8A4F1100304F00F0423F01C
:1003D0000F031033032C1D440DD92E462346043B36
:1003E00046F8042B032BFAD8231F04F0030423F050
:1003F00003030433ED18C9B21CB1013C05F8011B1D
:10040000FBD170BC704705461446C8E740F218633C
:100410000022C2F200031B68C3F8A800C3F8AC2096
:10042000704700BF40F2186247F62D73C2F2000217
:10043000C4F6954370B44FF22D451468C5F65105C6
:1004400001200021D4F8A820D4F8AC6005FB02F507
:1004500003FB0655A2FB032380182B4441EB030149
:10046000C4E92A0121F0004070BC704708B501F0D2
:1004700091FD00F019FB01F04BFA02F055FC02F07F
:10048000B9FF01F0FBFD01F083FBBDE8084003F07C
:10049000A1BA032801D101F057BA704738B5294DE8
:1004A0002B782C4623B9FFF7E1FF01232B7038BDD1
:1004B0006B88DB0707D56B8823F001031B041B0C3B
:1004C0006B8001F0FDFA62881E4B940707D55A88AD
:1004D00022F002021204120C5A8002F0EFFC194CB6
:1004E0006388580707D5638823F004031B041B0C9B
:1004F000638001F0CBFD6288124B110707D55A8843
:1005000022F008021204120C5A8002F0AFFF0D4CC8
:100510006388DA0607D5638823F010031B041B0CDD
:10052000638001F085FB6388064A1B0609D5538862
:1005300023F080031B041B0C5380BDE8384003F0FC
:1005400019BB38BD480A002013B5044601A804F0C1
:10055000D2FB0A4B01A85A8892B214435C8004F083
:10056000D1FB01A804F0C7FB054B01A81A8892B281
:1005700042F480621A8004F0C5FB1CBD480A0020CA
:10058000EC26002008B513F0F1FD13F0C3FDFCE7E5
:100590000178014801F026BD4DA3410037B54DF665
:1005A0009263ADF8023002238DF8063000238DF8F7
:1005B00007300DF102014FF0FF333F48ADF8043032
:1005C00002F0C7FD0DF1060102F0BFFD0DF10701BC
:1005D00002F0BBFD01A902F0BCFD3849044602F05F
:1005E000C9FD374902F0C6FD364902F0C3FD364960
:1005F00002F0B6FD354902F0ACFD354902F0A9FD27
:10060000344902F0A2FD344902F09FFD334902F063
:100610009CFD334902F099FD324902F096FD3249C2
:1006200002F093FD102205463049FFF7FFFD10222E
:1006300005F110002E49FFF7F9FD05F120002D49C5
:1006400002F083FD102205462B49FFF7EFFD2B49F1
:1006500005F1100002F079FD294902F076FD001B3A
:10066000C0B259288DF8070002D0264801F0BAFC24
:100670004FF0FF33ADF80430002507E0615DBDF8B1
:10068000040003F017FB0135ADF804009DF80720C6
:10069000ABB29A42F2D801A9A01E02F05AFD0DF1A8
:1006A0000701E01E02F051FD002060218022024B74
:1006B00002F0EEF83EBD00BF4C0A002020270020CB
:1006C0002827002030270020382700203C27002042
:1006D0003E270020402700204127002042270020FD
:1006E000432700206427002065270020442700209E
:1006F00054270020C2270020C3270020D327002032
:10070000D42700206EA3410003480722034980F844
:10071000A220A330FFF78ABD202700208CA3410030
:1007200013B502F00DFB02282CD111F0B1FE164AD0
:100730000190D2F8B830834224D09842C2F8B80071
:100740000AD2002120221148FFF716FE0120DC21E9
:1007500024220F4B02F09CF80E4C042294F8A410B3
:100760000120383189000DEB020302F091F894F872
:10077000A4300133DBB2082B84F8A43002D100236B
:1007800084F8A4301CBD00BF20270020D00A002020
:10079000CC0A00204C0A002008B5FFF7FFFE03201A
:1007A000BDE8084001F0EEB830B58BB0072006A9CF
:1007B00004F069FA6A4BBDF81820998B914204D075
:1007C0006849012081F8A5009A8393F82330644C8E
:1007D00063B902F0B5FA022808D194F822302BB997
:1007E000604A012384F8223082F8A5300A2006A945
:1007F00004F049FA5A4B9DF8182093F820109142C2
:1008000005D05849012081F8A50083F82020182040
:100810000DEB000104F037FA514B069A99699142A9
:1008200004D05049012081F8A5009A612A2006A928
:1008300004F029FA4A4B9DF8182093F821109142B0
:1008400005D04849012081F8A50083F82120202007
:1008500006A904F018FA424B9DF8182093F82310CB
:10086000914205D03F49012081F8A50083F823205B
:10087000112006A904F007FA394BBDF81820D98BCE
:10088000914204D03749012081F8A500DA83344C25
:10089000172006A904F0F7F9DDE90623D4E90201DF
:1008A0005940504050EA0105214605D02D48C1E984
:1008B0000223012480F8A54091F8B4400FF0DCFA3F
:1008C000844208D0274B012283F8A5200FF0D4FAE8
:1008D000234B83F8B400262006A904F0D4F922485B
:1008E00006A91022FFF772FC40B11E4B012283F8CB
:1008F000A5201D4806A91022FFF798FC1F2001A97A
:1009000004F0C1F901A819491122FFF75FFCC8B131
:100910009DF804101648124C01F064FB1122134894
:1009200001A9FFF783FC94F8A230102B01D9FFF73F
:10093000EBFE94F8A2100F4801F054FB094B012282
:1009400083F8A520074C94F8A5303BB1FFF726FEAD
:10095000002384F8A530032001F014F80BB030BD5B
:10096000202700204C0A002044270020C227002016
:1009700094A34100ADA34100014B93F8440070479C
:100980002027002001280CD8084B93F844208242ED
:1009900009D083F84400064B012283F8A5200020EB
:1009A0007047042070470020704700BF20270020B8
:1009B0004C0A0020C72808B5014607D9044BA3F804
:1009C000B600044801F00EFB002008BD052008BD5C
:1009D00020270020CEA34100014BB3F8B60070479A
:1009E0002027002013B52B4C0020214604F05EF98F
:1009F0001820211804F05AF9122004F1220104F001
:100A000055F9112004F11E0104F050F9172004F1EA
:100A1000080104F04BF90A2004F1200104F046F922
:100A2000072004F11C0104F041F9202004F1230106
:100A300004F03CF91F2004F1A20104F037F9292049
:100A400004F1450104F032F994F845302B2004F10B
:100A5000100133B902A90022002361E902232B20EF
:100A6000694604F023F92A200B4904F01FF90B4CC6
:100A700027200B4904F01AF926200A4904F016F938
:100A800094F8A53023B1FFF789FD002384F8A53041
:100A90001CBD00BF20270020412700204C0A002059
:100AA00065270020442700207FB5B04C0120214657
:100AB00001F04AFF48B9D4E9002352EA030104D007
:100AC0000AE0D05C5840585402E0A849A84A0823DC
:100AD000013B9BB27E2BF4D9A44D00241820291889
:100AE00085F8234085F8204004F0CDF8122005F168
:100AF000220104F0C8F8112005F11E0104F0C3F82A
:100B0000172005F1080104F0BEF801264FF0AA32C3
:100B10004FF0AA33C5E90423262005F1240185F806
:100B2000444085F8216004F0AEF82946272001F8FA
:100B3000456F04F0BBF880228D4B6021204601F008
:100B400061FE0DF10A018A4802F03CFB0DF10E0135
:100B500002F034FB0DF10F0102F030FB03A902F0AB
:100B600031FBBDF80A204DF692639A42054615D135
:100B70009DF80E30002B44D0B34203D19DF80F30C6
:100B8000582B04E0022B04D19DF80F30592B05D1CE
:100B90000BE003D99DF80F30582B06D8754810E0AC
:100BA000295D03F087F8013401E04FF6FF709DF8EE
:100BB0000F20A3B29A42F3D8BDF80C30834220D064
:100BC0006D4801F00FFA69494FF4004300228B6130
:100BD00000230120C1E902230023032281F82230EF
:100BE00081F8233081F8B32081F8B43081F84400D3
:100BF00081F8210081F8450010234FF6FF745C4A0C
:100C00005FE05E4905F1080002F0F4FA5C4902F089
:100C1000F1FA5C4902F0DEFA5B4902F0D3FA5B4973
:100C200002F0D0FA5A4902F0C9FA5A4902F0C6FA5B
:100C3000594902F0C3FA594902F0C0FA584902F082
:100C4000BDFA4A4B93F84420012A02D9002283F8C6
:100C50004420544902F0B2FA044621461022524878
:100C6000FFF7E4FA102204F110015048FFF7DEFA12
:100C700004F120004E4902F0A1FA04462146102258
:100C80004C48FFF7D3FA394B103493F8A230102BAD
:100C900001D9FFF739FD9DF80E3023B120464649B2
:100CA00002F08CFA04469DF80E30012B14D9204630
:100CB000424902F083FA0FE0D55CC8185D4080F825
:100CC0002450013B9BB2A3422848F5D1D0E9002330
:100CD000C0E90423FFF762FC244CFFF783FE00F019
:100CE00021FC0120C8232422DC2184F84400A4F83C
:100CF000B630334B01F086FD03A9314802F062FAA9
:100D00000DF10F0102F05AFA0DF10E0102F056FA40
:100D1000BDF80C204DF694639A4206D19DF80F5011
:100D20001DB99DF80E30202B4CD04DF69461202338
:100D30002422ADF80C10224800218DF80E308DF8D9
:100D40000F10FFF719FB03A91D4802F002FA0DF17D
:100D50000F0102F0FAF90DF10E0102F0F6F901208F
:100D6000DC212422164B01F093FD4AE020270020CD
:100D70004C0A0020E4A34100FBA3410028270020E7
:100D800030270020382700203C2700203E27002065
:100D90004027002041270020422700204327002031
:100DA00064270020652700204427002054270020C6
:100DB000C2270020C3270020D3270020D4270020EB
:100DC000CC0A0020C4F8B85001A902F003FA019B34
:100DD000D4F8B820934282BFC4F8B830134B83F8DC
:100DE000A4500135EDB2082DEED1114B114AD3F8C4
:100DF000B830934205D803F578730D4A0733C2F82B
:100E0000B8300A4C0C4B04F1A800C4F8B8300023E9
:100E100084F8B4304EF66023C4F8B03005F002F91F
:100E200004F1A80005F0E0F87FBD00BF4C0A0020E7
:100E30002027002016FCFFFF210740002DE9F0418C
:100E4000038886B00C46002B00F0358183780122A0
:100E50008B7083780A80013B232B00F22881DFE826
:100E600013F024006E002601260131002601340013
:100E70003A005F0058005500260111016700260165
:100E8000720026012601370026013F00430026019B
:100E90008C00DC0026012601470026010A01A00083
:100EA000260117014A001E012201854D0120294615
:100EB00001F04AFD18B100220023C5E90023E01C1F
:100EC0007F4937E0C81C7F491BE0C81C7E4918E0F9
:100ED00000F0E6FBF0E00331062003F0D4FE2BE047
:100EE000774B93F82230D0E0754B93F82030C5E073
:100EF0000EF09EFF25E006A94FF4827321F8023D13
:100F0000E01C02F026F923880233B1E0C81C6F49C7
:100F100010E0C81C6E4902F023F923880433A7E0CF
:100F2000674B93F82330D3F1010338BF0023A5E0CA
:100F3000C81C684902F01EF92388083398E010F0B5
:100F4000A1FEE070A8E05E4A022392F845000B8003
:100F500008B9C870B0E092F821204FF00000012AD3
:100F600005D002D3032A05D102E0012300E00323C8
:100F7000E370A1E0C87001209EE00388022B40F0DE
:100F80009880C378002B40F09480534ACB70043192
:100F900012F8010BC8540133102BF9D123881133F7
:100FA00066E00388022B40F0848090F803800026DE
:100FB0008DF8156081F803800B80FF2719E00598F4
:100FC00008F06AFC0546A0B1464510D1059809F025
:100FD00035F8014600286ED0201D02F0CBF8002322
:100FE000EA5CC2540133102BFAD11A2340E00136D7
:100FF000F6B28DF81470059808F092FD00B28DF8E5
:101000000000C0F307208DF80100BDF80070ADF8B6
:101010001470FFB23A06D2D54DE00388092B48D1AF
:10102000033002A902F0E6F802A807F09DFE00B224
:101030008DF80000C0F307208DF80100BDF80030E6
:10104000ADF814301B0636D4059808F025FC05468B
:10105000002830D0E01C02A902F08CF804F10B0249
:101060000023E95CD1540133102BFAD123881833C3
:101070002380002020E0124B93F844300222E370DA
:101080002280F6E70E4B93F84530E3700223EFE73A
:101090000331162003F0F7FD23880133E8E7084BFE
:1010A00093F8B330EAE7064B93F8B430EDE7042049
:1010B00002E0072000E0052006B0BDE8F08100BF97
:1010C000202700203E2700203C2700202827002042
:1010D00038270020302700204427002030B503881F
:1010E00005460520012B87B040F2A781A9789D48CD
:1010F00000F078FF002406E02B19D9789A4800F018
:1011000071FF0134E4B22B88A342F5D8974800F070
:1011100069FFAB78013B232B00F28A81DFE813F0F3
:101120002400880188018801530088016D0088012E
:10113000C100B100A10088010F01D7008801E900BA
:1011400088018801690088017F00900088013401CE
:101150004A018801880188018801640188018801A9
:101160004000880174017A012B88092B40F06281CC
:10117000033528467E490822FFF728F8002800F0AA
:101180005C8100217B4800F02DFF2846784902F061
:1011900031F87749012001F06DFC01F04DFC23E0AE
:1011A0002B88022B40F046811620E91C03F07EFDBF
:1011B0007148724BC0F8C430EB7880F8C030BC3056
:1011C00010F0FEFC38E12B88032B40F03381E81C43
:1011D0000DF1160101F0F6FF654BBDF81620D98B15
:1011E000914200F02981DA83634B012283F8A52024
:1011F00022E1284600F0B0FA1FE12B88032B40F0D3
:101200001981E81C0DF1160101F0DCFF584BBDF807
:101210001620998B914218BF9A83E5D10CE12B8857
:10122000022B40F00781EB78012B00F20381504A3A
:1012300092F82210994218BF82F82230D4D1FBE0F4
:101240002B88022B40F0F680EB78012B00F2F28025
:10125000474A92F82010994218BF82F82030C3D133
:10126000EAE02B88092B40F0E58003352846444905
:101270000822FEF7ABFF002800F0DF802846404937
:1012800034E02B88052B40F0D580E81C04A901F040
:10129000A1FF374B049A9969914218BF9A61A3D173
:1012A000CAE02B88022B40F0C580EB78012B04D0DC
:1012B000002B40F0BF80012300E000232C4A92F86D
:1012C0002310994218BF82F823308DD1B4E02B88C7
:1012D000092B40F0AF80033528462A490822FEF743
:1012E00075FF002800F0A9802649284601F082FFFA
:1012F0007AE72B88022B40F09D80EB78032B00F2DD
:101300009980DFE803F0020A05070323002206E0C4
:10131000032303E001231A4601E0002301221449BC
:1013200091F845009042084604D191F82110994265
:1013300000F0828080F8452080F8213054E72B8827
:10134000022B77D1EB78012B74D8094A92F845101B
:10135000994271D00849012081F8A50082F84530F2
:101360006AE000BF14A4410025A441006CA3410021
:10137000202700202AA441004C0A002091054000AB
:1013800028270020302700202B88122B52D1EC7800
:10139000002C4FD104352A4829461022FEF716FFAB
:1013A00000284AD0264B2A5D0134102C03F8012B6B
:1013B000F9D119E72B88192B3CD102A9E81C01F0BF
:1013C00019FF05F10B0102A808F04CFB00B28DF8E3
:1013D0000000C0F307208DF801009DF900000028EF
:1013E000B4BF0520002028E02B88022B22D1154B0A
:1013F000E87893F8443083421ED0134B012283F8DF
:10140000A520FFF7BFFA18E02888022814BF07209C
:10141000002012E02B88022B0CD10A4BEA7893F8BB
:10142000B410914218BF83F8B4207FF4DDAE03E01E
:10143000042002E0072000E0002007B030BD00BF1C
:1014400044270020202700204C0A00202DE9F743E4
:101450002F4D304C05F115070026A5F10B09A046CC
:1014600015F80B3C01A88DF8043007F035FA94F814
:101470004630002B43D094F8482005F80B3C09EB8C
:1014800006135A7094F849209A7094F84A20DA703A
:1014900094F84B201A7194F84C105A7961F30302B6
:1014A0002E2171435A7194F84D2005F8052C08EB54
:1014B00001024E32C2F30720DA711872C2F30740FC
:1014C000120E58729A72414494F860206231C1F34E
:1014D00007202A7019735873C1F30740090E9873D7
:1014E000D9730D4ABB600D4B142000FB0630FA6027
:1014F00007F006FA94F84610094800F073FD01362B
:101500002E3410351437022EAAD1BDE8FE8300BF59
:10151000230B0020202700202D1E4000380B002028
:101520004AA441002DE9F347594B93F84620013A6C
:10153000D2B2FD2A13D94FF48271A3F848100521C5
:10154000A3F84A100021012283F86010192183F8C2
:10155000462083F84C20A3F84E1083F84D204C4BC6
:1015600093F87420013AD2B2FD2A10D9502283F8A0
:1015700074204DF60062A3F876200122A3F87820AB
:1015800083F87A20002283F87B2083F88E200020C5
:101590006022404B014601F035F90DF102013D4852
:1015A00001F010FE0DF1060101F008FE0DF107013A
:1015B00001F004FE01A901F005FEBDF802204DF680
:1015C00093639A42054609D19DF8064034B99DF8C7
:1015D0000730572B88BF4FF6FF7005D82E480DE017
:1015E000295D02F067FB01349DF80720A3B29A42FF
:1015F000F6D8BDF80430834203D0284800F0F2FC4E
:1016000041E0234F00244FF02E08B94608FB047632
:10161000284606F1460101F0D1FD06F1480101F02E
:10162000D1FD06F14A0101F0CDFD06F14C0101F0BA
:10163000C5FD06F14D0101F0C1FD172666430025E9
:10164000A91907EB41014E31013501F0BBFD092D10
:10165000F6D108FB0491603101F0B0FD4FF0170A9C
:101660000AFB04FA0546002606EB0A0107EB4101D6
:101670006231284601F0A6FD0136092E0546F3D158
:101680000134022CC2D1FFF7E1FEBDE8FC8700BFA8
:1016900020270020600B00205EA441007AA44100B6
:1016A00070B5C3780222CB700A80C2780D46012A39
:1016B0004DD8284A2E2606FB0326B41D081D2146B8
:1016C00001F043FD06F1080101F043FD06F10A01B6
:1016D00001F03FFD06F10C0101F037FDE37906F161
:1016E0000D01013BDBB2082B0ED801F02EFD0026C8
:1016F00006E0311D04EB410101F02BFD0136F6B28D
:10170000E379B342F5D803E00023E37101F01DFD56
:10171000214611F81A3F013BDBB2082B0ED801F02D
:1017200014FD002606E004EB46011C3101F011FD1A
:101730000136F6B2A37EB342F5D803E00023A376C8
:1017400001F003FDAB1CC01A2880002070BD0420EE
:1017500070BD00BF602700202DE9F347C378012B3F
:1017600000F2CD80674D2E2202FB0355AC1D061DF5
:1017700000212046FEF700FE2146304601F01EFD06
:1017800005F1080101F01EFD05F10A0101F01AFD45
:1017900005F10C0101F012FD05F10D0101F00EFD46
:1017A00000250CE00DF1020101F00CFD082D04D81C
:1017B000BDF802202B1D24F813200135EDB2E3798A
:1017C0009D42EFD3092B01D90923E37104F11A01DA
:1017D00001F0F4FC00250CE00DF1020101F0F2FC37
:1017E000082D9EBFBDF8022004EB45039A83013506
:1017F000EDB2A37E9D42EFD3092B01D90923A37635
:10180000FFF724FE4DF69363ADF802300024582311
:101810000DF102013C488DF807308DF80640ADF817
:10182000044001F096FC0DF1060101F08EFC0DF173
:10183000070101F08AFC01A901F08BFC334E074639
:101840004FF02E08B14608FB046505F1460101F092
:101850007CFC05F1480101F07CFC05F14A0101F036
:1018600078FC05F14C0101F070FC05F14D0101F02F
:101870006CFC4FF0170A0AFB04FA002505EB0A017D
:1018800006EB41014E31013501F063FC092DF5D124
:1018900008FB0491603101F058FC4FF0170A0AFB75
:1018A00004FA002505EB0A0106EB4101623101351E
:1018B00001F04FFC092DF5D10134022CC3D14FF0BA
:1018C000FF32BD1EADF80420002407E0395DBDF8ED
:1018D000040002F0EFF90134ADF804009DF8072090
:1018E000A3B29A42F2D801A9284601F032FC0020A6
:1018F00001466022044B00F0CBFF002000E00420F2
:10190000BDE8FC8760270020600B00202027002016
:1019100008B504F06FFE01460A4800F063FB02F0D0
:101920000BFE002002F030FE012002F02DFE02200E
:1019300002F02AFE00F07CFD0120BDE80840FEF721
:1019400003BE00BF93A44100032808B517D101F0DE
:10195000F7F9022802D100F01BF90CE001F0F0F9D0
:1019600048B9FFF709F8012805D101F0EFF902287D
:1019700001D101F0A7FA00F013FD002008BD0520F9
:1019800008BD0000052824D8DFE800F0030D081288
:10199000181E104B1A7842F020020DE00D4B1A78F9
:1019A00042F0040208E00B4B1A7842F0080203E010
:1019B000084B1A7842F010021A707047054B5A789B
:1019C00042F040025A707047024B5A7842F02002AF
:1019D0005A707047C00B0020052824D8DFE800F0BB
:1019E000030D0812181E104B1A7822F020020DE089
:1019F0000D4B1A7822F0040208E00B4B1A7822F003
:101A0000080203E0084B1A7822F010021A7070479F
:101A1000054B5A7822F040025A707047024B5A78B0
:101A200022F020025A707047C00B0020F8B504461F
:101A30000D4601F085F9022802D00020FFF7CCFF07
:101A4000E9070ED5134E377807F0FC07377001F021
:101A500077F900F003000743377027700320FFF782
:101A6000BBFFAA070DD5237863F07F032370094BD2
:101A70005E7806F0E706667001F0C6FF46EAC0062B
:101A800066706B0705D5637863F07F0363709323FB
:101A9000A370F8BDC00B00201FB502300DF10E0180
:101AA00001F090FB694601F0A5FBDDE90023BDF8DC
:101AB0000E000FF0ADFD80F00100C0B205B000BD1A
:101AC00008B50A4B9A787AB901229A70FEF754FF4A
:101AD000012809D1064BD3E9002352EA030103D0C0
:101AE000BDE8084001F0EEB908BD00BFC00B002002
:101AF00020270020704770477047000038B5A0F1DC
:101B000038040546012002F03FFD29781B4800F00B
:101B100069FA21461A4811F0E5FC2146194811F0EE
:101B200000FD0020FFF72EFF174811F0D5FC0446FA
:101B300028B9164811F0D0FC044600281CD0A5F1A5
:101B40003000A11D01F0D1FA0130C0B2207115F8AA
:101B5000343C637150B10220FFF714FF0B4821465B
:101B600011F0DFFCBDE8384000F01ABC0648214601
:101B7000BDE8384011F0D5BC38BD00BFA7A4410076
:101B8000D00B0020D40B0020D80B0020DC0B002051
:101B90002DE9F0411E4C00256560256025616561D9
:101BA000A560E56004F57C6029468022FEF7E4FB31
:101BB0001834C02606FB05411648013511F0B1FC6A
:101BC000102DF7D11448154911F0ABFC1248144DF3
:101BD00000F54C6111F0A5FC0F48124911F0A1FC71
:101BE0000024A0462F46182606FB04F101F5626189
:101BF000083185F82C8E79180B48013411F091FCCE
:101C00001835102CF0D10020BDE8F041FFF7BABE26
:101C1000D00B0020D40B0020E00B0020E8170020A0
:101C2000E80B002058190020D80B00200520704731
:101C3000704700002DE9F04385B007460E4601F0DD
:101C40007FF805460620022D5FD133887F2B59D8B7
:101C50002F4B5C6824B92F4800F0C4F9284654E0A3
:101C600004F18603E36204F108080023238501A838
:101C700041468DF804700296ADF80E3001F04CF933
:101C8000013041D0BDF80E50FEF7A6FE854209D9BD
:101C9000BDF80E40FEF7A0FE214602461E4800F0A9
:101CA000A1F92FE0237B012B12D194F82690258AED
:101CB000494628460DF054FF50B9284649460DF0D4
:101CC00037FF08B9154800E01548294600F08AF9A1
:101CD000B37814482371144B636311F0FDFB214664
:101CE0000B4811F01EFC404606F0C2FC012002F039
:101CF00035FC0E48BDF80E20A38C394600F072F971
:101D0000002002E0052000E0072005B0BDE8F083D8
:101D1000D00B0020C3A44100E0A4410002A5410073
:101D200029A54100D40B0020FD1A400053A5410015
:101D3000F8B50F4F064607F114000D4611F0CCFB25
:101D4000044620B90120FFF747FE0520F8BD7B6956
:101D500013B90120FFF740FE2146064811F0E1FBD0
:101D6000304604F108012A4601F05AF90020F8BD76
:101D7000D00B0020E00B002070B5174E054606F191
:101D80000C0011F0A9FB044620B90220FFF724FE45
:101D9000052070BDF36813B90220FFF71DFE214630
:101DA0000E4811F0BEFB29882279C1F17F039A42C7
:101DB00010D86918631D0231D21803E013F8010B23
:101DC00001F8010B9342F9D122792B880020D31816
:101DD0002B8070BD052070BDD00B0020D80B0020DB
:101DE00030B5104B93F8C05FCDB104880E4904198B
:101DF0000234002205E011F8013B013A04F8013BEE
:101E000092B253199BB2002BF5D1064A018892F881
:101E1000C04F6118018082F8C03F184630BD0520D0
:101E200030BD00BFD00B0020911B002038B5818E43
:101E3000C28E0546134800F0D5F8134811F04CFB4C
:101E40000446E8B10120FFF79DFD502204F108008F
:101E50002946FEF7EBF92A8F04F158005F2A6064E7
:101E600003D8E96BFEF7E2F902E00023A4F8403062
:101E70000648214611F055FBBDE8384000F090BA05
:101E800038BD00BF86A54100E00B0020E40B002018
:101E9000038F10B504466BB1C38EA3F113014A4200
:101EA00042EB010252EAD33201D1202B02D120466B
:101EB000FFF7BCFF2046BDE8104013F021BC000036
:101EC000837A10B5012B044605D100F111011022CF
:101ED0000348FEF7ABF92046BDE8104014F0BABE47
:101EE0004427002010B5436A04461A7802F0030321
:101EF000012B1AD0CBB902F03C020C2A15D190F874
:101F0000202010065CBF0B4981F8C02F07D50CE0DC
:101F1000626AD05CCA18013382F8C10FDBB294F850
:101F200020209A42F4D800F03EFA2046BDE8104046
:101F300010F03EBDD00B0020037810B5022B0446F4
:101F400019D0072B17D1008B0EF064F898B90FF059
:101F5000D5FD0368426893420DD2218B9888884250
:101F600006D101221A709A7E42F010029A7602E09F
:101F700020339342F2D32046BDE8104009F008B95F
:101F8000034B5A699207FCD5014BD961704700BFDA
:101F900000060E40104B4FF480721A61A022C3F865
:101FA00000224FF0FF32C3F80C220C4A4FF4C061FC
:101FB00051602322C3F820224FF40062C3F80422A8
:101FC00007494FF48672C3F8002200204022C3F86C
:101FD000002201F0CDBC00BF00040E40000E0E40F8
:101FE000811F40000FB407B504AB53F8042B002049
:101FF0000349019301F021FCBDE80E4004B0704795
:10200000811F4000034B9A78104398700420FEF71C
:102010009BBA00BF101C002010B5094C4FF4807112
:1020200004F18A02201D962301F0ECFA024630B139
:10203000214611F88A0BBDE8104000F081BA10BDAE
:10204000101C002073B500930A4B06460D4614463B
:10205000019331462A461620234600F007FA064926
:102060009622087001F5907102B0BDE8704000F052
:102070003DBA00BF45214000101C0020024B002249
:102080009A705A70704700BF101C002010B52C4C7D
:10209000A378D80708D501F0EBF9002847D1A37839
:1020A00023F00103A37040E0990713D501F0E0F994
:1020B00000283CD1A378A07123F00203A3700E2363
:1020C0002371637904F10800013303216371FFF781
:1020D000ADFC2AE01A0712D501F0CAF938BBA37883
:1020E00004F1080023F00803A370FFF79FFDF0B987
:1020F0001B2323716379A0710133637115E05B07C2
:1021000015D501F0B5F9034688B9A278A07122F07F
:102110000402A2701922227162792046013220F84D
:10212000083F6271FFF75CFE08B9FFF775FF044BCB
:102130009B7823B10420BDE81040FEF705BA10BD1E
:10214000101C002073B58F4C4FF4807204F5DB73C4
:1021500001F09AF9002800F0148194F8B63194F84F
:10216000B72123716271DA1E2546172A00F2008119
:10217000DFE812F0370052006700FE00AC00BD003F
:10218000EE0018001E00FE00E300FE00FE00FE0050
:10219000F70037007F008A0091009E006700F4007E
:1021A000FE0031007848A0F5D971FEF747FEDDE06A
:1021B000744E06F5DD70FEF791FF0246A07120B166
:1021C00096F8BC117148FFF70DFF95F8BC31AB7262
:1021D00001232B81D0E06C48FFF75EFC0121A07148
:1021E000C9E0A378674C990742BF664923F0020310
:1021F0008B70674BD2B2985C04F5DD71FFF71AFD66
:102200000223A071238104F10A000121FFF70EFCD3
:1022100094F8BC31E372AFE0A3785E489A0742BFFE
:10222000584A23F00203937001212181FFF7A4FD96
:102230000121A07101A8FFF7F9FB9DF80430A372FA
:102240009AE0A278940742BF4E4922F002028A70B7
:102250004F4A053B4B4CDBB2D3182146187C012377
:1022600021F8083FFFF764FD0121A07104F10A0085
:1022700007E0454801F0D6FB0221A07121814648C4
:102280000321FFF7D3FB77E03F4801F003FC002375
:10229000A071238170E0A378980742BF394A23F0E8
:1022A00002039370022121813A4801F065FC0BE0A2
:1022B000A3783848990742BF324A23F0020393704B
:1022C0000223238101F08AFCA871D8E7A37894F84F
:1022D000BC119A0742BF2B4A23F0020393700023DC
:1022E000A371A5290CBF072103212A48C9E794F847
:1022F000BA41244D44B1022C19D1204600F02CFDE6
:1023000000F0E0FDA87114E0FEF736FB012802D1D1
:102310002046FEF737FBFEF72FFB012802D00020F6
:1023200000F01AFD00F0D2FD164B987101E0072372
:10233000AB71144B00221A721EE00023A371174BDD
:1023400002A941F8083D1348694600F009FF13E06F
:102350000023A37100F0BEFD20720DE00423A371E1
:102360000AE00948A0F5D97100F026F8A07103E051
:102370000423A371002121810120FFF743FEFFF711
:1023800085FE7CBD101C0020CA1D0020B0A54100A8
:10239000049C4100181C00201A1C00200003062683
:1023A0000220FFF72FBE0420FFF72CBE014B187848
:1023B00000F054B9101C002037B50C4602212180D2
:1023C00083780588A37075B382780023013A102AB8
:1023D00026D8DFE802F026262525252525252525D2
:1023E0002626262525250900042D1ED1C378932BEA
:1023F00018BFE57019D10DF10601043000F0E2FEBE
:10240000BDF80600FEF7D6FAE070FEF7E5FA0DF12A
:102410000601ADF80600201D00F09BFE258004E0BB
:102420000423E37001E0072000E000203EBD00002F
:102430000C4B002203F19001002003F80C2C03F850
:10244000102C43F8082C43F8042C1A609A60DA60C8
:102450001882588224338B42EED1034B012283F839
:10246000902070475C1E00204C1E00202DE9F04398
:102470009C460027089BDFF870903C4609EB070656
:102480003679E5B2DFF860802EBB0F1C18BF01273C
:10249000002A0CBF002707F0010707B31CF1000753
:1024A00018BF0127002B0CBF002707F00107B7B1A9
:1024B000A8B12427674308EB0704E260079A20715C
:1024C00008F80760E66126846684A160C4F810C03D
:1024D0006261A36104E001342437042CCED1FF25CE
:1024E0002846BDE8F08300BF4C1E002030B5134CD9
:1024F00094F89030003318BF012303288CBF0023C9
:1025000003F00103C3B10B1C18BF0123002A0CBF49
:10251000002303F00103242505FB004413B1E1610E
:10252000228401E0E3612384044B242202FB003077
:1025300000234384012030BD184630BD4C1E0020CE
:102540002DE9F843444B904693F890200C46003216
:1025500018BF012203288CBF002202F00102002ACA
:1025600077D00A1C18BF0122B8F1000F0CBF00225F
:1025700002F00102002A6CD0242505FB00352B79DE
:102580005A0766D513F0100643D02B69C0200026E9
:1025900005F110099847374614E0A05DD9F80030DE
:1025A000C719C028BFB206D0DB2809D19847D9F88F
:1025B0000030DD2004E0DB209847D9F80030DC2033
:1025C00098470136B3B24345E7D37842C0B2DB281F
:1025D0002B6903D198472B69DD2005E0C02803D182
:1025E000DB2098472B69DC207F429847C7F3072000
:1025F000DB282B6903D198472B69DD2005E0C02833
:1026000003D1DB2098472B69DC2098472B69C02039
:102610001BE09B061DD52B69AA2098472B69162025
:102620009847B8F1160F28BF4FF01608C02714F8C6
:1026300006902B69013648469847B3B24F4443454C
:10264000FFB2F4D37F422B69F8B298476B6903B1AC
:102650009847BDE8F88300BF4C1E002070B5584B6A
:1026600093F89020003218BF012203288CBF00226B
:1026700002F00102002A00F0A280242404FB0034AE
:1026800023799B0740F19B80E3689847002800F07E
:1026900096802379180744BF43F0040323712379FC
:1026A000D9064DD547E0A3689847C028237802D0C3
:1026B000DB2828D123E0DBB9618C012918D9E06936
:1026C0004B1E6588C25C0239AA1A92B26280455CD0
:1026D000521B92B26280455C5242D6B2AE4207D1E2
:1026E000C35CC2F307229A4202D164E089B29847E0
:1026F000002363846380237823F0010301E043F027
:102700000103237017E0DA0709D523F00103DC2861
:10271000237003D0DD280ED1DB2000E0C020E26969
:102720004AB1638C218C994205D9D054013363841A
:102730006388C0186080E36898470028B3D170BDF3
:1027400099063CD5A3689847638C012B08D002D327
:10275000182B20D10FE0AA2828D10123638424E07C
:10276000162804D1022363846388163301E0002312
:10277000638463801AE0A378C01880B210F0FF0F62
:10278000608005D1A3691BB1E0691621023098472A
:10279000002363840AE0E26942B1218C994205D9A1
:1027A000D054013363846388C0186080E36898471D
:1027B0000028C7D170BDA369002B97D198E770BDE1
:1027C0004C1E002037B50C4B0C4C1B680546236093
:1027D00001A802F090FA290241F0B441236841F0C7
:1027E000090100209847044601A802F08BFA04482A
:1027F0002146FFF7F7FB3EBD08008000E01E0020E9
:10280000E7A54100C04300F5884001EB00211846D0
:10281000FDF70CBD034B044A196851604FF4C062C8
:102820001A607047000A0E40E01E0020024B5A68F2
:10283000024B1A60704700BFE01E0020000A0E40E5
:1028400037B5000240F0B44040F0040409B940F04C
:1028500003040B4B0B4D1B6801A82B6002F04BFAD5
:102860002B68214600209847044601A802F04AFA46
:10287000054B064899682246FFF7B4FB3EBD00BFF2
:1028800008008000E01E0020000A0E4009A641005A
:10289000F0B51F468B18B3F5807FC3B00E461546C2
:1028A00034DC00214FF4807201ABC443FFF7AAFF70
:1028B00001AB981904F5806639462A46B6B2FDF791
:1028C000B5FC04F58844FFF7A5FF3046FFF77AFF13
:1028D000240200231A591A510433B3F5807FF9D129
:1028E0000B4C01AD2946042241A8FDF79FFC419BFA
:1028F0000435236054F8043FB4F5880F4193F1D1B7
:1029000030460121FFF79CFFFFF790FF43B0F0BD79
:1029100000FF430030B5002304460A494FF6FF701C
:102920000CE05A5C0133424082EA0212D2B215092D
:10293000000A85EAC20540EA022068409AB2A24233
:10294000EFD330BDE81E00202DE9F041394D2022A3
:102950002B4606460C460020E021FFF753FF2B785C
:102960006A7843EA02224DF690639A4235D1AB78F9
:10297000012B21D1EB78082B2FD1FF2300221F46FA
:1029800012F805C0013287EA0C0C8CEA1C1C4FEAD5
:10299000DC075FFA87F888EA030383EA57070C2A03
:1029A00008F00E03234983EA0C03E9D18A7FC87F2C
:1029B00042EA002083420CE0022B0ED1EB78082B78
:1029C0000BD10C20FFF7A6FFAB7FEA7F43EA02237F
:1029D000984214BF0020012000E00020154981F832
:1029E000200000B3012E1ED1204604310822FDF73D
:1029F0001DFC2078D0B96378502B18D1A378C22B56
:102A000015D1E378FF2B12D12379FF2B0FD1234669
:102A1000D979225C21540130DA71013B0428F7D1C5
:102A20000020BDE8F0810120BDE8F0810020BDE874
:102A3000F08100BFE81E002038B50D4D0223AB70B9
:102A40006FF06F032B706FF021036B700C20082365
:102A5000EB70FFF75FFF0024A877C0F30F20E87743
:102A6000E021204620222B46FFF712FF204638BDEA
:102A7000E81E0020084A0023012810B582F8203003
:102A800007D1CC5CD0180133082B0471F9D1002098
:102A900010BD012010BD00BFE81E0020002001F085
:102AA00089BD000008B5054B1B78032B04D8044AE8
:102AB00052F82330984708BD052008BD101F00209C
:102AC000289C410001460420FFF7ECBF10B50446E6
:102AD000417C0448FFF786FA05202146BDE81040F6
:102AE000FFF7E0BF3AA6410038B5144B05461B7806
:102AF000834222D0124C204603F094FA012D02D0DA
:102B0000022D07D102E04FF4FA730AE0002001F031
:102B100025FD0AE0002001F037FD204603F082FA8F
:102B2000C8232046A36003F05FFA044B0320002172
:102B30001D70BDE83840FDF7ACBC38BD101F00204B
:102B4000D0000020017808B50348FFF74BFA0020B9
:102B5000BDE80840FFF7C8BF59A6410010B50528D9
:102B600062D8DFE800F0036147576149304B142019
:102B700093F88C20D3F89010D3F8943000FB021116
:102B800033F8123049882B4C43EA01422A4BC3F8F0
:102B9000B8200DF047F940B92848FFF723FA284B31
:102BA000201DA36012F0A6FB24E0264B0022C4F8EF
:102BB000AC30342323830123A3760023C4E9082304
:102BC000226F002302F07F422267626F04F110003F
:102BD00002F07F426267C2F3066263F3861284F8F2
:102BE0006F3084F8733084F8772012F0F3FD1648C4
:102BF000FFF7F8F9022010BD4C7C24B92046FFF7FE
:102C000073FF204610BD0B480D4B8360043012F05B
:102C100071FB07E00B780020902B01D0912B05D1A0
:102C2000FFF762FF002010BD052010BD10BD00BFE2
:102C3000485B0020101F00202027002080A64100B4
:102C4000452B4000CD2A4000A1A64100012808B52F
:102C500002D002280BD105E0FFF746FF0220FDF766
:102C600073FC02E00348FFF7BDF9002008BD052012
:102C700008BD00BFB4A6410013B501380C460528B5
:102C80004BD8DFE800F04C03054A4A03032012E06A
:102C90000B788F2B1AD004D8502B23D08E2B3ED1FB
:102CA0000FE0902B02D0912B39D103E00020FFF7E9
:102CB0001BFF34E00120FFF717FF0220FDF744FC63
:102CC0002DE00DF0D9F8174B83F8B4002179E278A4
:102CD000144B42EA0122DA83A279E17942EA012225
:102CE0009A831CE0CB780A79684643EA02224B7942
:102CF00042EA03428B7942EA0362CB79097A43EADA
:102D00000123617A43EA0143A17A43EA0163012185
:102D10008DE80C0006F0CCFF01E0052000E000206B
:102D20001CBD00BF20270020034B002203481A705F
:102D3000C823836003F058B9101F0020D000002082
:102D4000014B1878704700BF101F0020014B93F80B
:102D5000F8007047101F0020034B93F8F8208242C0
:102D600018BF83F8F8007047101F002038B50C46D4
:102D7000042800F28580DFE800F0037A837C1900E4
:102D8000FDF730FE404B93F8B4000DF06FF807F0FC
:102D900067FB3E4B3E48C0F8203100F5807012F0D2
:102DA00079FC3C48FFF71EF9022038BD897C0029D8
:102DB00051D1A188227863883748FFF713F9324D43
:102DC000364BD5F8B82093F88C00D3F8941021F83E
:102DD000102093F88C00D3F89010142303FB0013F9
:102DE000120C5A806388AB830DF046F895F8B43026
:102DF000834209D00DF040F801462948FFF7F2F868
:102E000095F8B4000DF032F80DF036F81E4D95F837
:102E1000B430834205D00DF02FF801462148FFF76A
:102E2000E1F8A3881820EB83012385F8223022786B
:102E30001D499340AB6101F039FF11201B4901F09E
:102E400035FF12201A4901F031FF0220FFF74CFE36
:102E5000FDF7A2FC0BE01748FFF7C4F80020FFF7CE
:102E60007BFF0B48144B8360043012F043FA0020C0
:102E700038BD0B788F2B05D10220FFF735FEF6E722
:102E8000052038BD002038BD20270020C52A40007D
:102E9000101F0020D8A64100F1A64100485B002089
:102EA00029A741004FA74100382700203E270020D6
:102EB0004227002077A74100452B40000020014613
:102EC000FFF7F0BD01200021FFF7ECBD022000213B
:102ED000FFF7E8BD014B93F81A017047101F00205F
:102EE00010B5044601780B48FFF77CF80320214613
:102EF000FFF7D8FD23788E2B02D0942B09D104E064
:102F00000320BDE81040FEF73DBDBDE81040FDF7D1
:102F10004BBC10BD9EA7410010B5034600221A729B
:102F20001A780C46012A406801D8033002E0C278C2
:102F300004301A721A7A12F0010208BF5A8103D0C3
:102F400003F10A0100F03EF910F8013B2371032B55
:102F500015D8DFE803F01602070C04F1080100F0B1
:102F600031F90EE004F1080100F02CF903E004F15E
:102F7000100100F03FF910F8013B237601E02648EC
:102F800012E004F11A0100F01DF904F11C0100F037
:102F900019F910F8013B04F12001A37700F012F9B0
:102FA000238C312B0ED91D48FFF71CF84FF0FF3052
:102FB00010BD7E2B9EBF0178626AD15401339BB253
:102FC000013000E00023228C9A42F2D8027894F873
:102FD000283062F3000384F828300278DBB2C2F3B1
:102FE000400262F3410384F828300278DBB2C2F376
:102FF000800262F3820384F828300278DBB2C2F3E5
:10300000C00262F3C3036FF3C71384F82830437818
:10301000002084F8293010BDBFA74100E0A741007F
:103020002DE9F0411688022396190C46B370054627
:10303000F11C0720174601F026FE237E06F1020848
:103040007371637EF01DB371637E032B0DD8DFE8CF
:1030500003F01002020704F1200100F07AF808E002
:1030600004F1280100F086F803E000233B80BDE86E
:10307000F08194F8323004F1340100F8013B00F0A3
:1030800068F804F1360100F064F8E36B03B92387B4
:1030900004F1380100F05DF8E36B3BB90AE0E26B44
:1030A000D25C013300F8012B9BB200E00023228F99
:1030B0009A42F4D894F8403004F14401037094F833
:1030C0004130437094F843308370033000F048F887
:1030D000012D84BF94F8483000F8013B3B88C8EBD1
:1030E000030840443880BDE8F08138B503790446D0
:1030F00003F00303084600F8013B23790D46032B38
:1031000021D8DFE803F01302070C04F1080100F0F6
:1031100020F80BE004F1080100F01BF803E004F1D3
:10312000100100F027F8237E00F8013BA37F04F193
:103130003401037094F830304370023000F010F81E
:10314000401BC0B238BD002038BD0B7800F8013BF1
:1031500070470B8803700B881B0A4370023070475E
:103160000B6803704B7843708B788370CB78C37097
:10317000043070470B6830B503700B6805461B0AB6
:1031800043704B880C468370CB78C370FF23D1E922
:1031900000010B402B714FF47F43D4E900010B4039
:1031A0001B0A6B714FF47F03D4E900010B401B0C29
:1031B000AB71E37905F10800EB7130BD10F8013B0C
:1031C0000B70704703780B804278023043EA022389
:1031D0000B80704703780B60427843EA02230B6050
:1031E000827843EA02430B60C278043043EA026308
:1031F0000B607047F0B504780025C1E900454678BA
:103200000023320214431D43C1E9004586780023A0
:10321000320414431D43C1E90045C6780023320639
:1032200022432B43C1E900230579002442EA040626
:1032300043EA0507C1E90067457926432B021F438E
:10324000C1E90067857926432B041F43C1E9006764
:10325000C57944EA06022B063B43C1E90023083046
:10326000F0BD0000054B58881B88834204D97F2895
:103270008CBF0020012070470020704738200020BC
:10328000044B00220120C3F8042183F8082201F036
:1032900091B900BF38200020F8B5174C06462546E6
:1032A00027E023887F2B02D90023238063806A884C
:1032B0002B889A4202D1002323806380298801222F
:1032C000691884310D4801F023FB00280A4F03DC04
:1032D00000233B807B80F8BD2388013EE21892F8F2
:1032E00084200133C02A2380B6B202D10820FDF722
:1032F0002BF9002ED5D1F8BD38200020E027002082
:10330000084B5A887F2A08D81988914207D99918FA
:10331000013291F884005A807047002070470020E5
:10332000704700BF3820002010B5114CD4F804219C
:10333000E2B192B20F4804F5847101F015FA013040
:103340004FF001030DD184F818320B4B502204F5D5
:103350000370C4F81422C4F81C32BDE8104002F017
:1033600043BE84F808320023C4F8043110BD00BF06
:1033700038200020E0270020B933400008B50D4B6D
:10338000D3F80421FF2A0BD899180132B2F5807FB7
:1033900081F80801C3F8042108D1FFF7C5FF05E053
:1033A0000020C3F8040183F8080200E0012000B205
:1033B00008BD00BF3820002010B50C4CD4F8042103
:1033C00092B192B20A4804F5847101F0CDF901304E
:1033D00005D104F50370BDE8104002F005BE0023DE
:1033E00084F80832C4F8043110BD00BF3820002032
:1033F000E02700201548052370B5C3602223144D33
:103400004382C02303754FF40063C3822B1D036204
:10341000802383840F4B002403630F4B04820483B7
:1034200084628485436380F8384001F071F90B4869
:103430000B490C4A0C4B26466C802C80C5F8044185
:1034400085F80842BDE87040FEF7FCBDE02700208B
:103450003820002099324000813240000133400082
:10346000653240007D33400029334000FEF79EBFA7
:10347000044B93F80802A0F10103584240EB03000B
:10348000704700BF382000202DE9F74F1E46031C6F
:1034900018BF0123022994BF002303F00103002B6E
:1034A00000F0A980002E00F0A280037833704278EB
:1034B00072708278B270002B00F09B801B2B00F2A0
:1034C0009C800479C27842EA0422914240F09580BF
:1034D0004B4A02EBC3035B68002B00F08C80441D59
:1034E000351D9B467DE0632B12D006D8442B65D05A
:1034F000482B45D0422B74D12FE0682B0DD002D839
:10350000652B6ED119E0692B0FD0732B69D11CE0AC
:1035100014F8013B05F8013B63E0284621460222EE
:10352000FCF784FE023402355BE028462146042283
:10353000FCF77CFE0434043553E02846214608227B
:10354000FCF774FE083408354BE014F8013B6A1CA4
:103550002B701546002BF8D143E0204610F8012BC4
:10356000294601F8012B571C002303E014F803C07F
:1035700005F803C00133BB42F8D184188D1830E040
:10358000A14619F801AB2F4607F801AB4FEA4A0AEA
:1035900007EB0A03B846641B07E04046022201938A
:1035A000FCF744FE019B08F10208984508EB040172
:1035B000F3D109EB0A0407EB0A0512E02378B38084
:1035C000627843EA0222802AB28016D802340023AD
:1035D00003E0E05CF1188871013399B29142F8D3AD
:1035E000A4181BF8013B002B7FF47DAF01E03046AF
:1035F00004E0012002E0184600E00020BDE8FE8F54
:10360000389C41002DE9F04F0446003018BF0120DE
:10361000002A0CBF002000F0010087B015460028EA
:1036200000F0B580022B40F2B180237803201370A4
:1036300063785370A37893702378002B00F0A780F1
:103640001B2B00F2A380CD23D370AB231371227800
:10365000504B03EBC2035868002800F09880271DE8
:10366000A31D6E1D019002970393AB467BE0632B75
:1036700012D006D8442B68D0482B47D0422B72D1A9
:1036800031E0682B0FD002D8652B6CD11BE0692B81
:1036900011D0732B67D11EE030463946FFF755FD38
:1036A000013706465FE0304639460222FCF7BEFD90
:1036B0000236023757E0304639460422FCF7B6FDA1
:1036C000043604374FE0304639460822FCF7AEFD99
:1036D0000836083747E017F8013B721C337016466E
:1036E000002BF8D13FE0394611F8012B304600F8A5
:1036F000012B551C002303E017F803C006F803C094
:103700000133AB42F8D186188F182CE0B94619F86E
:1037100001AB354605F801AB4FEA4A0A05EB0A034F
:10372000A846BE1B2F461D4605E040460222FCF778
:103730007DFD08F10208A84508EB0601F5D13D46DC
:1037400007EB0A0609EB0A070DE0A388802B1DD8BA
:1037500030460299FFF7FDFCA28803990546FCF765
:1037600065FDA688AE19019A12F8013B0192002B63
:103770007FF47DAF06A95D46CBEB060621F8026D0E
:10378000E81CFFF7E6FCBDF8160000E0002007B0DB
:10379000BDE8F08F389C4100F0B5012400E04C43B7
:1037A000B0FBF4F58D42FAD200251DE02F1CB0FBD2
:1037B000F4F618BF0127002EC8BF47F0010704FB2D
:1037C0001600B4FBF1F407B96CB9092EF7B204DDA9
:1037D000002A0CBF5726372600E03026F61903F8DA
:1037E000016B013500E03D46002CDFD11C70F0BDBF
:1037F0002DE9F041069E002B0CBF4FF020084FF042
:10380000300804460D46334600E0013A13F8011B28
:1038100009B9174606E0002AF7DCFAE720464146D8
:10382000A847013F002FF9DC01E02046A84716F821
:10383000011B0029F9D1BDE8F0812DE9F04F87B0D7
:103840000546884614469B460DF10C0988E025295B
:1038500001D0013482E06178302903D002344FF086
:10386000000A03E0A1784FF0010A0334A1F130030C
:10387000DBB200260A22092B04D919E002FB063626
:1038800014F8011BA1F13003D8B20928F6D9A1F12F
:103890006103DBB2052B98BFA1F1570306D9A1F153
:1038A0004103DBB2052B03D8A1F137030A2BE5DD79
:1038B000642919D00AD8582927D004D8002953D010
:1038C00025294DD14AE063294AD132E0752904D037
:1038D00078291AD0732943D133E00BF10407DBF8C0
:1038E00000000A2100221AE0DBF800000BF10407B7
:1038F0000028A8BF4B4605DA2D238DF80C30404236
:1039000009F101030A2100220AE0A1F158035A42F9
:10391000DBF8000042EB03020BF1040710214B46D9
:10392000FFF73AFFCDF8009028464146324653460D
:1039300010E09BF800100BF104062846C047B34680
:103940000EE0DBF800300BF10407009328464146F7
:1039500032460023FFF74CFFBB4601E02846C04734
:10396000217800297FF473AF07B0BDE8F08F000025
:10397000014B1960586070475822002038B5084C38
:1039800002234178054607482370FEF72BFB6B782E
:1039900004206370FDF7F6FFBDE83840FEF700BD78
:1039A00060220020FEA7410010B5017804460748B8
:1039B000FEF718FB2278064B002A0CBF02220022D9
:1039C0001A70BDE81040FEF7EBBC00BF18A841001C
:1039D0006022002038B50B4C0023251D04F10C019A
:1039E00028466360A3600FF09CFD04F19401284613
:1039F0000FF097FD04F58E712846BDE838400FF0B2
:103A000090BD00BF60220020044B1B78013BDBB25D
:103A1000022B9ABF024AD05C00207047602200202F
:103A2000189D410070B50546FFF78AF9002826D198
:103A30002B8813B3144C2378A3F10302564246EBB0
:103A40000206012B08BF46F00106C6B9AB78A3F108
:103A50000B02D2B20F2A14D80C4D0122AB706B703E
:103A600022700CF0C9F90A4BA88004F5D270C4F892
:103A7000A83100F0B1F9304670BD072070BD0520B7
:103A800070BD072070BD00BF6022002020280020EC
:103A9000A939400037B5334D04462B781BB9FFF7E1
:103AA0004FF9022858D12B780520022B59D1A01CA0
:103AB0006946FFF78FFB0DF10601FFF77FFB0DF164
:103AC0000701FFF77BFB9DF80730032B03D1264945
:103AD000FFF790FB04E0022B40D12349FFF772FB74
:103AE000204C9DF8073004F5F57184F8E831FFF7B4
:103AF00069FB04F5FC71FFF765FB04F5FD71FFF749
:103B000061FB04F5FE71FFF759FB94F8FC313F2B84
:103B100026D8002204F5047404E0855C111981F8AC
:103B200046500132D1B29942F7D30E4C0F4B0025CB
:103B3000C4F800320E4B04F5D870C4F8083294F87B
:103B4000043284F80E52013384F8043205F024F86C
:103B500003232370284604E0062002E0072000E04B
:103B60000B203EBD6022002050240020B6240020FF
:103B70007D3940007047000070B5164E054606F1CD
:103B800008000FF0A9FC044620B90520FDF724FF2A
:103B9000052070BDB36813B90520FDF71DFF0E4861
:103BA00021460FF0BEFCA3882A889B187E2B0ED8D6
:103BB000AA182B800232002303E061188979D154BE
:103BC0000133A088D9B28842F7D8002070BD052003
:103BD00070BD00BF602200206422002010B50446A2
:103BE0000420FDF7F9FE238800205A1C2280E418E7
:103BF000014B5B78A37010BD6022002070B5018C72
:103C0000428C04462848FEF7EDF928480FF064FC82
:103C10000546002847D00520AE1DFDF7B3FE21461E
:103C20003046FFF796FA04F10801FFF7A3FA04F112
:103C30001201FFF78EFA04F11001FFF786FA237CD8
:103C400004F11801032B02D1FFF794FA01E0FFF70A
:103C500080FA04F12001FFF77CFA04F12201FFF75A
:103C600078FA04F12401FFF770FA002305E0A26A54
:103C7000D25C013300F8012BDBB294F824209A4285
:103C8000F5D804F12C01FFF760FA04F12D01FFF7DC
:103C90005CFA861BAE80064829460FF042FCBDE860
:103CA0007040FEF77DBB70BD38A841006422002043
:103CB0006822002081EA000383EA0313DBB21A09B9
:103CC000000A82EAC30240EA032382EA0300704743
:103CD00008B5044B00221A705A68107053681046D9
:103CE000984708BD002500200078FFF7F1BF0000CD
:103CF00006480623037050230374054B9B880383F7
:103D0000044B0362083007F02FB900BF00250020E4
:103D100020280020E93C400010B50C4B044693F8E5
:103D200058000CF0A3F8207860B90948022303700A
:103D30006FF07F430363074B43632830BDE81040B7
:103D400007F00AB9BDE81040FFF7C2BF20280020E5
:103D500000250020593D4000007858B9064803234B
:103D600003705223037401230376044B036208306B
:103D700007F0FAB8FFF7ACBF00250020813D4000F6
:103D8000007858B9064B04221A7002221A74054AA8
:103D9000187603F108001A6207F0E6B8FFF798BF3B
:103DA00000250020A93D4000007860B9074B05229E
:103DB0001A70074A1874527803F108001A76054AF7
:103DC0001A6207F0D1B8FFF783BF00BF00250020BB
:103DD00020280020F13C4000064B1A7842B901220D
:103DE0001A70054A586003F13C001A6411F082BA57
:103DF000704700BF00250020193D400070470000BB
:103E000013B502AA02EBD003012200F0070012FA58
:103E100000F000240094ADF8044003F8080C684654
:103E200000F0AAFA084B19781DF8042001340A435F
:103E3000062C03F8012BF6D1044B93F83A2042F0FC
:103E4000040283F83A201CBDA628002090280020F8
:103E500008B501E010F088F902F0E0FD0028F9D182
:103E600008BD000038B505460C46FFF7F1FF2846AF
:103E7000214602F02FFD013006D0054B9C4205D1B2
:103E8000FFF7E6FF002038BD012038BD002038BD17
:103E9000FD3D400038B505460C46FFF7D9FF2846E2
:103EA000214602F05BFD013006D0054B9C4205D156
:103EB000FFF7CEFF002038BD012038BD002038BDFF
:103EC000FD3D40002DE9F0434B4C89B094F83A3069
:103ED00043F0020384F83A3003F00403DBB2002B12
:103EE00074D0464804F1160100F094FA94F83A3080
:103EF00023F0040384F83A3068E0FC88012504F0DC
:103F0000070215FA02F206EBD403997D002021EA9C
:103F100002029A750199BDF8082000F095FA06ABE7
:103F200004930623ADF81430BDF800300DF12008DD
:103F3000063B28F8143D814631494046FFF792FF81
:103F40009DF818304B4526D1BDF81C30A34222D134
:103F5000BDF80820BDF81A309A421CD10DF11F039C
:103F6000ADF814500493002510E0BDF80030404631
:103F7000EB182349ADF80C30FFF774FF049B1A7857
:103F8000019B5B5D9A4206D10135ADB2BDF80830A8
:103F9000AB42EAD81CE0BDF8083008A8ADF81A30EA
:103FA00006AB04930623ADF81430BDF80030144975
:103FB000063B20F8143D8DF81890ADF81C40FFF733
:103FC00069FF68460F49FFF765FF12E00B4F0A4E85
:103FD00069460A4800F098F9074B014600288CD141
:103FE00093F83A200F2022F0020283F83A2010F0D2
:103FF0000BF809B0BDE8F083902800204825002088
:10400000FD3D4000C53E40000023C25C22B90133A3
:10401000062BFAD1104670470120704738B50622AA
:104020000C46054608460021FCF7A6F9EB080122DC
:1040300005F0070512FA05F5E25C20461543E55444
:10404000BDE8384000F098B910B510B1012815D17D
:104050000CE00B4B9A1D13F8010F0C78934204EA05
:10406000000001F8010BF6D1012010BD084600F058
:104070003BFAD0F1010038BF002010BD002010BD78
:10408000AB28002008B5FFF7BBFE044B93F83A308D
:104090009A0701D4FFF716FF012008BD90280020E1
:1040A00007B56946FFF7BAFF00206946FFF7CCFF66
:1040B0006846FFF7A9FF70B1074A00231DF80310F7
:1040C00012F8010F01400DF803100133062BF5D152
:1040D0006846FFF799FF0EBD9F2800202DE9F041AB
:1040E0003C4C3D4E3D4A2189921B41EAD2023C4B59
:1040F00022813C4A6360D31A6289002742EAD303D3
:10410000638100238AB02660E760E76123844FF073
:10411000010818E03146082204A8FCF787F8E36894
:10412000BDF8142006339B18BDF81620E36004EB9D
:10413000D20302F0070208FA02F2197F01370A439C
:104140001A770836FFB22589AF42E3D306ABED00FC
:104150000293002408231F4F0435ADF80C30264687
:104160001FFA84F807EBD8031A7F04F0070332FA2A
:1041700003F3DB0723D5F300043301A81A49ADF894
:104180000430FFF76FFEBDF81C30434502D1069B9B
:10419000AB4206D001A81449ADF81C800695FFF784
:1041A00079FE404600F034F80822014604A8FCF7E6
:1041B0003DF8BDF8143001360633ED18B6B20134BF
:1041C0002D2CCDD100F018F808A800F08DF90AB018
:1041D000BDE8F08190280020400040002801400008
:1041E0002801400058014000FD3D4000014B188F60
:1041F000FFF748BF90280020034B002283F83020AF
:10420000024A5A63704700BF90280020ED414000E9
:104210002DE9F3410C4E8046376800240DE007EB92
:10422000C405A91D02220DF10600FBF7FFFFBDF832
:104230000630434505D00134A4B23389A342EED8F9
:1042400000252846BDE8FC8190280020F0B50E46E8
:104250002B49C4080B191A7F00F0070332FA03F345
:10426000DB0789B0054658BF4FF6FF7335D50622E8
:1042700006A81C31FBF7DAFF002213461AE008A952
:10428000881810F808EC01324FEA5E0707F055076E
:104290000EF0550E7744B90801F0330107F03307EB
:1042A000C91900F8081C01F00F0000EB11115B1890
:1042B0009BB2D2B2A242E2D308A9002205F00705C0
:1042C0000C1908E014F8081CD14001F001015B183A
:1042D00001329BB2D2B2AA42F4D3DB00043304AA67
:1042E000ADF804300749082301A80292ADF80C305C
:1042F000FFF7B8FDBDF81010318009B0F0BD00BF68
:1043000090280020FD3D4000F7B5002305460C46EF
:1043100098B2C208A95C03F0070731FA07F616F055
:10432000010F0AD0012616FA07F721EA0701A9545E
:10433000FFF76EFF014620B919E001332D2BE7D1BD
:1043400015E008226846FBF771FF009BBDF80600E8
:1043500063602146FFF77AFF2388304606332380C7
:10436000BDF804302381BDF80630EB8003E04FF048
:10437000FF33EB800020FEBD2DE9F0434579244F4B
:1043800015F0400585B00446D7F8048039D0FF21E8
:10439000062205B0BDE8F043FBF7EEBF082208EBAC
:1043A000C50101A8FBF742FFBDF80A10CB08E25C8B
:1043B00001F0070132FA01F0C00720D54FF00109E2
:1043C00009FA01F122EA0102E254002613E0019900
:1043D000022201EB46010DF10E00FBF727FFBDF8AD
:1043E0000E200136D30802F0070209FA02F2E15C5E
:1043F000F6B20A43E254BDF80830B342E7D80135BB
:10440000ADB27B89AB42C9D805B0BDE8F08300BF2F
:10441000902800204FF0FF3310B50622C3800446D9
:10442000FBF704FF2046FFF7A7FF064B9A1D13F882
:10443000011F2078934200EA010104F8011BF6D124
:1044400010BD00BFAB28002010B5002303E0CC5CFA
:1044500001330019C0B29CB29442F8D310BD0000E1
:10446000F0B587B004AB02930623ADF80C300B888F
:1044700006AE063B26F8143D04460D463046194963
:10448000FFF7F0FCBDF81430A34227D12A89BDF80C
:1044900012309A4222D10DF1170302930024012316
:1044A000ADF80C3027460FE02B880E49E318304654
:1044B000ADF80430FFF7D6FC384602990122FFF729
:1044C000C3FF01340746A4B22B89A342ECD89DF860
:1044D0001000B84214BF0220002000E0022007B004
:1044E000F0BD00BFFD3D400070B586B0044604AD90
:1044F00028462146FFF78EFF204600210622FBF7C3
:104500003BFF01260FE0BDF8160001A9FFF7A8FF49
:1045100048B9BDF81620D30802F0070216FA02F2D5
:10452000E15C0A43E254284601A9FFF7EDFE0028AA
:10453000E9D106B070BD0000074B4FF400204FF4E6
:1045400000314FF48022186119611A6118631963F0
:1045500000201A63704700BF000E0E40012806D0ED
:1045600038BF4FF4002204D3022809D104E04FF4ED
:104570000032044B5A637047024B4FF480225A6357
:10458000704700BF000E0E40012806D038BF4FF420
:10459000002204D3022809D104E04FF40032044B76
:1045A0001A637047024B4FF480221A63704700BFB2
:1045B000000E0E4001280AD002D302281BD10FE0C2
:1045C0000D4B9A6B12F4002F4FF4002205E00A4BBA
:1045D0009A6B12F4003F4FF400320AD11A6370470D
:1045E000054B9A6B12F4802F4FF4802208BF1A6398
:1045F00001D05A6370477047000E0E4013B5164C39
:104600002378D90705D5237803F0FE03237000F043
:1046100027F82278104B920705D51A7802F0FD0290
:104620001A7000F027F80C4C23785B0705D5237827
:1046300003F0FB03237000F027F823785BB101A897
:1046400000F059FB054B01A81A8892B242F480721F
:104650001A8000F057FB1CBD50250020EC260020DE
:1046600008B5034B01201B680021984708BD00BF17
:10467000D028002008B5034B01201B680021984773
:1046800008BD00BFD428002008B5024B00201B68DD
:10469000984708BDCC28002013B51B4B1B681C880D
:1046A000996A5888A4B280B2C1B114199A8DA4B283
:1046B000944208BF002484420CD04FF000038CBF0A
:1046C000C4EB0202C4EB00020093091902200F4B55
:1046D00002F036F80C4B1B681C8014E012F03F0F00
:1046E00014BF00240124002A0CBF002204F00102A0
:1046F00032B102200A46054B009102F021F802E097
:104700005B6B03B198471CBD5425002099464000BF
:1047100010B50446C8B1C368052B16D10E4A1368FC
:10472000B3B91060818C0D4A83801180C3800380EF
:1047300043800B4801F0CCFF02F0A2F8022802D01F
:10474000084802F075F8E06810BD4FF0FF3010BD6A
:104750004FF0FF3010BD00BF54250020D8280020A6
:10476000D14B4000E12800202DE9F743354B14469A
:104770001B6880465E881A880D46B6B292B2002841
:104780005CD083425AD1D1F1010938BF4FF0000902
:10479000002C08BF49F00109B9F1000F4ED1986A09
:1047A00058B9009022460220274B01F0C9FF00288B
:1047B0000CBF20464FF0FF3042E0B24207D9921BB7
:1047C00092B2A24224BF8019094620D236E0B8F83E
:1047D0002C70BF1BBFB2BA1892B2A2422ED3BC42F9
:1047E000304414D93A46E41BFBF720FDA4B2294615
:1047F0003A46154B0220CDF8009001F0A1FFE919CF
:10480000D8F828002246FBF711FD26460CE0224688
:10481000FBF70CFD0220294622460B4BCDF80090F9
:1048200001F08EFFA619B6B2B8F82C302046B3427C
:1048300008BF0026034B1B685E8001E04FF0FF308D
:10484000BDE8FE835425002099464000F7B51E4B75
:104850001E4A1B6816889D88DC88ADB2A4B2A542AA
:1048600007D29A8C121B3F2A1CDC002D2AD0264628
:104870000024AC4213D19F8C196A3A1B402AACBF6A
:1048800025460025A8BF374600230093491901207B
:1048900040220F4B01F078FF3E462C460BE02A1BCE
:1048A0003F2A0FDD196A00230093091901204022D5
:1048B000074B01F069FF28B9034B1B689D80DC8022
:1048C000024B1E80FEBD00BF54250020D8280020CA
:1048D000D548400008B50C4B1B68D988521892B2D5
:1048E000DA809A880949D8881B6B92B280B209880D
:1048F0004BB1904238BF0818801A80B29847BDE883
:104900000840FFF7A3BF08BD54250020D828002089
:104910002DE9F84F1546374A0E46136836499C88EC
:10492000B3F80690A4B21FFA89F9B1F800B00028D4
:1049300058D0834256D1D6F1010738BF0027002D49
:1049400008BF47F00107002F50D1B8469246A14555
:1049500039D04C45274B13D21B68C4EB0907BFB2B3
:10496000196AAF422144304605D92A462C19FBF773
:104970005DFCA4B20FE03A46FBF758FC4C4623E03E
:1049800067195F4509DA1B683046196A2A46091912
:10499000FBF74CFCBCB22F4616E0DAF80030C4EB53
:1049A0000B08196A1FFA88F8091930464246FBF7C6
:1049B0003DFCDAF80030C8EB05054644ADB2B3F86B
:1049C00024B00024C3E700270A4B47441B689C809F
:1049D000A3F80690084BA3F800B0FFF737FFB8B272
:1049E000BDE8F88F4FF0FF30BDE8F88F4FF0FF3093
:1049F000BDE8F88F54250020D828002000F04AB8E0
:104A000007B509496FF03D034B70012300208B70FF
:104A100008238B710870C87008714871072203461B
:104A2000009001F08DFE0EBDDA28002007B50028A9
:104A30001DD04378212B0BD0222B0ED00020202B11
:104A400010D10C4907220C4B009001F09DFE0EE0A6
:104A500003B05DF804EBFFF7D3BF03B05DF804EBE0
:104A600000F018B803B05DF804EB01F0AFBE03B07E
:104A700000BD00BFDA280020FD49400048B103799D
:104A8000427953EA022201D1FFF7D0BF002001F0A2
:104A90009DBE704707B500200146024603460090C0
:104AA00001F04EFE0EBD08B501F0B0FEBDE80840B5
:104AB000FFF7F0BF07B50138062826D8DFE800F079
:104AC00004060C2525252500134908E013498B7899
:104AD000C87843EA002303E0012907D110490B7885
:104AE00000209A4228BF1A46009009E069B90C4B91
:104AF0000C491B7893423CBF0A4B1A780020009067
:104B0000034601F01DFE03B000BD002003B05DF8B8
:104B100004EB01F05BBE00BF749D41001B9D410092
:104B2000E40000205E9D410007B5002840D0437896
:104B3000062B04D0092B1FD0052B34D10FE083782E
:104B4000C178827943EA0121C0790B0A42EA002246
:104B5000C9B2184603B05DF804EBFFF7ABBF82782B
:104B6000144B002002F07F021A8001460093024697
:104B7000114B01F0E5FD1BE08078FFF794FF0F4833
:104B800001F0B2FD0E4801F0AFFD0E4801F0ACFDA2
:104B90000D4B00221B680092196A012040220B4B2A
:104BA00001F0F2FD04E003B05DF804EBFFF766BF2F
:104BB00003B000BD58250020ED674000409D410036
:104BC000509D4100579D410054250020D54840008C
:104BD000014801F083BD00BF294B400010B5164CC1
:104BE000002148222046FBF7C7FB01220023C4E92D
:104BF0000A23052384F83230104CA02221461048A5
:104C0000FBF714FB04F1A00138220E48FBF70EFB62
:104C100004F1D80128220C48FBF708FB04F5807149
:104C200050220A48FBF702FB0948002143F26012B8
:104C3000BDE81040FBF7A0BBB05A002000010020E7
:104C4000485B0020785A0020505A0020F85A002073
:104C5000F028002037B5074B044603EBC101684636
:104C60000822FBF7E3FA9DE803006D4684E80300A1
:104C700020463EBD5002002008B5FFF7AFFFBDE85B
:104C80000840FFF72BBA37B505460C4661B16846B8
:104C90002946FFF7DFFF0099BDF80420204603B046
:104CA000BDE83040FBF7C2BA03B030BD13B50346D0
:104CB0000C4689B12D280FD806E00098214602B095
:104CC000BDE81040FBF7B2BA68461946FFF7C2FFCD
:104CD000BDF80420002AF0D102B010BD13B5034680
:104CE0000C4668461946FFF7B5FFBDF804300BB90E
:104CF000009B23601CBD10B5044600F006F8206040
:104D000072B610BD006800F003B8EFF31080704772
:104D100080F310887047FEE70B4B07B51A688018C0
:104D200018600A4B01A81A6842F001021A60FFF7E6
:104D3000E2FF074B01A81A8892B242F002021A80E1
:104D4000FFF7E0FF0EBD00BF5C250020AC25002072
:104D5000EC26002037B50A4C01A8FFF7CCFF002352
:104D6000257901A82371FFF7CDFF0A235D4323684E
:104D7000EB18AB42236002D26379013363713EBD0D
:104D80005C25002007B5144B1A6A0092009AD006E1
:104D900018D5DB6AD90615D5104B01A81A7901324E
:104DA000D2B21A710E4B1A6842F001021A60FFF774
:104DB000A2FF0C4B01A81A8892B242F002021A809C
:104DC000FFF7A0FF009B5A0705D5034BDB6A5B0783
:104DD00001D501F0C3F80EBD000001405C250020A4
:104DE000AC250020EC260020104B4FF40001196187
:104DF0000F4B02221A604FF0FF329A620D4AC2F83E
:104E00008010C2F88011186A4CF20200586044F613
:104E10002060D861102058620F2082F817031160BB
:104E200001221A6004221A60704700BF00040E407D
:104E30000000014000E100E0014B02221A607047CF
:104E40000000014008B5FFF785FF014B186808BD59
:104E50005C25002010B50D4B40001A69D96980B25D
:104E6000891A814298BFC1EB00011C4698BF89B2E4
:104E700004D923699B1A8342FBD310BD1869904261
:104E8000FCD818698842F9D310BD00BF000001406A
:104E900010B54369044613F0E00F03D04FF4867356
:104EA000036010BDD9070CD50269D20709D5816905
:104EB000C9B201F027FB1248844214BF052002202A
:104EC00019E098050BD52269910508D50C484FF4D7
:104ED0000073E360844214BF042001200BE09A07B2
:104EE0000DD523699B070AD505480223E360844258
:104EF00014BF03200020BDE8104001F0E1BA10BD4E
:104F0000004002400148FFF7C3BF00BF004002401D
:104F10000148FFF7BDBF00BF0080024007B5012177
:104F200011FA00F00B4B1A781043C0B218700A4BFC
:104F300001A81A6842F040021A60FFF7DCFE074B36
:104F400001A81A8892B242F002021A80FFF7DAFE34
:104F50000EBD00BF64250020AC250020EC260020FB
:104F6000014B986801F0A4BB64250020014B5868F0
:104F700001F09EBB64250020014B986801F081BBC5
:104F800064250020014B586801F07BBB642500209C
:104F9000014B986801F04EBB64250020014B586816
:104FA00001F048BB6425002073B501A8FFF7A3FEFC
:104FB000084B00251C7801A81D70FFF7A3FE064EC4
:104FC00005E0E30701D5AB59984764080435002C88
:104FD000F7D17CBD642500204C9E410038B5164BAE
:104FE0005868C468656915F0E00F1CBF4FF48673FC
:104FF0002360E90707D52369DA0704D501F0FCFA35
:105000000220FFF78BFFAB0508D52369980505D56E
:105010004FF40073E3600120FFF780FFA90709D573
:1050200023699A0706D502230020E360BDE83840D3
:10503000FFF774BF38BD00BF6425002013B50C4BCB
:1050400000F10C0253F822400194019C24EA01046F
:105050000194019C44F042040194019C43F82240D5
:1050600000F10C0253F822200A408A42F8D01CBDFD
:105070000040034013B50C4B00F10C0253F82240E2
:105080000194019C0C430194019C44F0420401945E
:10509000019C43F8224000F10C0253F822200A4000
:1050A0008A42F8D11CBD00BF004003400E4B1C22B9
:1050B00002FB00335A88196970B58A429C6888BF20
:1050C0008AB2A418891A9C601961084C09E05968D1
:1050D00000F1140511F8016B013A44F8256092B211
:1050E0005960002AF3D170BDEC5B00200040034002
:1050F0001F4BF7B51C2606FB0036737804461D4D82
:1051000001A8F3B9FFF7F7FD04F10C0355F82320CC
:1051100022F0020245F8232004F10C0355F8233055
:105120009B07F9D401A8FFF7EDFD231C18BF01234D
:10513000032C0CBF002403F00104BCB101237370E5
:1051400014E0FFF7D8FD04F10C0355F8232022F0FA
:10515000400245F8232004F10C0355F8237017F0A2
:105160004007F8D101A8FFF7CDFD7770FEBD00BF65
:10517000EC5B00200040034013B5364BDA699969B7
:105180000A4065D012F480500AD04FF44C521A6293
:105190004FF480721A61304B1A6842F020024AE0E4
:1051A000D1051DD54FF480712C4A19621478042C56
:1051B0004ED959614FF408511961147828490C707F
:1051C00010705A6F42F480725A67264B80225A60E0
:1051D0000422C3F80421204B1A6842F008022AE096
:1051E00012F4085F20D01F4A0421C2F80011802168
:1051F00011605A6F22F480725A675A6F42F400723B
:105200005A67164B1A7812B9154A12781A70114B50
:105210004FF408521A625A614FF480721A610E4BB1
:105220001A6842F0100206E0D2B28AB15A610A4B03
:105230001A6842F004021A6001A8FFF75CFD0A4BED
:1052400001A81A8892B242F002021A80FFF75AFDB2
:105250001CBD00BF00400340AC250020E85B0020DF
:10526000E95B002000040E40EC260020074B4FF4C1
:105270000C521A62064B04220F21C3F88420C3F893
:10528000842183F822135A60704700BF0040034016
:1052900000E100E038B51C235843094BC25CC51837
:1052A000033AD2B2012A0AD80222C2546C6934B13C
:1052B000A8682B69AA89C3189BB2A869A04738BD02
:1052C000EC5B002070B50021094C1C260A464FF00B
:1052D000FF3006FB01F501312B1908295A60D8600F
:1052E000986018615A619A615A702A55F1D170BD5F
:1052F000EC5B002070B5074D0124002620460134E8
:105300000221E4B2FFF7C6FF082C05F81C6FF5D1A7
:1053100070BD00BFEC5B002008B50A4B03221A7079
:10532000094B5A6F22F480725A675A6F42F4007226
:105330005A67FFF7C7FFFFF7DDFF0020BDE8084011
:1053400001F0D2B9E85B0020004003402DE9F843AA
:105350004FF01C08DFF81C9208FB00F800F10C036A
:1053600059F82360824FF207044608EB07055FD522
:1053700018F80720032A54D159F82330AA6813F4E7
:10538000E06F6B8804D19A422CBF0023012309E00F
:105390009A4205D82B69D3F1010338BF002300E0FE
:1053A0000023DBB2EA6893B1AB684FF00009D21872
:1053B0000121EA602046C5F80890FFF73FFE20462D
:1053C0004946FFF767FF16F4E06F31D124E06B88A0
:1053D0002046D218EA60AA68D31AAB60D4F1010360
:1053E00038BF0023032C08BF43F0010353B1FFF77C
:1053F0005DFE20461021FFF73DFE20460121FFF70C
:105400001DFE09E01021FFF735FE20460121FFF7C0
:1054100015FE2046FFF74AFE0122A240554B1A61B5
:1054200006E00121FFF70AFE0123A340C9F810306E
:1054300016F0420F59D018F80730042B21D0DFF8AE
:105440003C914C4D06EA0909B9F1000F09D12046FB
:10545000FFF74EFE20464946FFF71CFF0123A340FD
:105460000DE016F0200F4FF0010904BF09FA04F314
:105470006B613AD02046FFF73BFE09FA04F32B613B
:1054800033E02A694FEA1649914589BFAB684B461C
:10549000C2EB03034B4484BFAB6093B2D21A2A61C0
:1054A000EA68D218EA60334A0AE004F11400696835
:1054B00052F82000013B087069689BB201316960B5
:1054C000002BF2D12046FFF713FE2B6913B16B8836
:1054D0004B450AD916F4E06F03D10122A240254BB7
:1054E0001A6120460021FFF7D5FE73072BD518F867
:1054F0000730033BDBB2012B03D820460021FFF726
:10550000C9FE1D4A1B491068002304F1140551F817
:105510002550C5540133082BF7D1136893F9003097
:10552000002B03DA20468021FFF7A4FD204604214A
:10553000FFF784FD0122A2400E4B1A610E4A536808
:105540000BB110689847300710D508212046FFF7A7
:1055500075FD18F80730012B03D020462021FFF7F6
:105560006DFD012313FA04F4024B1C61BDE8F883BE
:10557000EC5B002000400340702500200007FF077F
:1055800070B501268640094D0C46AB6A09023343CB
:10559000AB62AB6A41F4004123EA0603AB6241EA25
:1055A0008221FFF767FD04B92E6170BD0040034002
:1055B000144B13B5044604F10C0253F82220D10613
:1055C000F9D42046FFF772FD01A8FFF794FB1021E4
:1055D0002046FFF74FFD01A8FFF794FB231C18BFDF
:1055E0000123032C0CBF002303F0010343B1064B3E
:1055F0001C2202FB0433DB6813B12046FFF756FD83
:105600001CBD00BF00400340F05B00202021FFF7DD
:1056100031BD0000044B40F480729A6010B1012249
:105620005A6070475860704700400340034B0122A6
:1056300010B15A6842F002025A60704700400340BD
:1056400038B5036841699A6CDD6C43682943C568C5
:1056500004461D430D4025EA020115401D424161EB
:1056600001D083689847E3681D4201D023699847B9
:1056700038BD00002DE9F04F182720F08006774351
:10568000DFF858C18B460CEB07010D1D030658BF10
:1056900001F10C056B6885B00392002B40F09680F9
:1056A00099461C46184602931A46AA4601911BF8D1
:1056B0000980012101FA09F5B8F1040F14D8DFE8D7
:1056C00008F00B0F030508002B430DE02B432A4382
:1056D0000AE02B432A4306E02B432A43284303E0F6
:1056E0002B432A4328432C4309F10109B9F1200F28
:1056F000DDD101990292D1F80C90D1F80480554681
:1057000049EA080813EA080F60D1D1F808800B367F
:10571000B8F1000F2DD1D1F81080B8F1000F28D1C9
:105720005FFA86F84FFA88F9012208F01F0802FA9A
:1057300008F84FEA5919DFF8A0B009F1200A09F179
:1057400060094BF82A804BF8298002FA06F9DFF845
:105750009080C8F810905CF807804FF0FF39C8F8C7
:105760004490D8F84CA0C8F8B490C8F8D090C8F8C5
:10577000C090039A2B606A605CF80750029AF6B2F8
:10578000C5F8B020C5F8D440C5F8C4002B648B68B8
:1057900072B2002B0CBF0F230E23002A06DA1A0167
:1057A0000C4B06F00F01CB181A7604E0D9B20A4B65
:1057B000D31883F8001372B2012006F01F0610FA06
:1057C00006F6054B520943F8226000E0002005B0C0
:1057D000BDE8F08FFCEC00E000E100E0A005002057
:1057E00000040E4020F0800318225A4304498B180D
:1057F0008A5801064CBF5B68DB681364704700BFC2
:10580000A005002020F0800318225A430649000614
:1058100001EB02038A584CBF5B68DB68906C184050
:105820001CBF536401207047A00500202DE9F341FF
:1058300020F0800318275F43DFF85480060608EB4A
:105840000704054601A84CBF6668E668FFF753FAEF
:1058500058F807306269D96C0A4322EA0606666185
:105860009B6C1E420DD005F07F050B356AB20123FB
:1058700005F01F0513FA05F55209044B403243F8B1
:10588000225001A8FFF73EFABDE8FC8100E100E0EC
:10589000A00500200148FFF7D3BE00BFA0050020EF
:1058A0000148FFF7CDBE00BFB80500200148FFF753
:1058B000C7BE00BFD0050020034B044A1968116021
:1058C0004FF4C0621A607047000A0E40782500202D
:1058D000024B1A68024B1A60704700BF78250020FF
:1058E000000A0E4073B5018803464FF6FC7008406D
:1058F00000F58602001200F5787000F5804502F58B
:10590000604201F003012D020024665966510434FF
:10591000B4F5807FF9D11468019400E0002102AC55
:1059200065185C68013114F8016B5C601C8805F82F
:10593000046C01341C801C89013CA4B204291C8124
:1059400001D0002CEBD1019942F8041B12F0FF0F9B
:1059500003D011680191002CE0D17CBD37B5000265
:1059600040F0B44040F0040409B940F00304074B90
:10597000074D1B6801A86B60FFF7BDF96B6800203D
:105980002146984701A8FFF7BDF93EBD08008000F9
:105990007825002037B50A4B0A4C1B68054601A83C
:1059A0006360FFF7A8F9290241F0B44141F0090111
:1059B00063680020984701A8FFF7A4F93EBD00BF27
:1059C000080080007825002007B54FF080431A6C4E
:1059D000D96C114011F0200F2E4A1BD001211174F7
:1059E00020219964137A002B53D1D368002B50D017
:1059F000294B01A81A6842F480721A60FFF77BF9FC
:105A0000264B01A81A8892B242F002021A80FFF7D0
:105A100079F93EE02248084038B12148986413687B
:105A2000586840F64103984233D11068127A037ADD
:105A300082B1C1684FF0804004E0026A013B41F846
:105A4000042BDBB24FF08042002BF6D120235364AD
:105A500001231DE0CA0707D54FF0804301229A6455
:105A60004FF000625A6414E00A0144BFC1684FF06D
:105A7000804005D40DE0026A013B41F8042BDBB203
:105A80004FF08042002BF6D1202353644FF0006387
:105A900093640EBD80250020AC250020EC2600205C
:105AA0000000FFE008B5034B01221A75DB68984738
:105AB00008BD00BF802500200D4B0821DA684FF497
:105AC000806042F00402DA600A4A0B4BC3F880108F
:105AD000C3F8801110604FF0FF305060106840F440
